S0180000447261676F6E666C7953796E746853572E73726563A6
S11300000C943C000C9459000C9459000C94590025
S11300100C9459000C9459000C9459000C946B02E4
S11300200C9459000C9459000C9459000C945900E8
S11300300C9459000C9459000C94F8010C94590038
S11300400C9459000C946F010C9459000C945900B1
S11300500C9459000C9459000C9459000C945900B8
S11300600C9459000C945900AF028C029002930234
S113007099029B02A102A60211241FBECFEFD8E071
S1130080DEBFCDBF11E0A0E0B1E0E4EDF7E002C0D7
S113009005900D92A230B107D9F721E0A2E0B1E0BA
S11300A001C01D92AA31B207E1F70E94CE010C945F
S11300B0E8030C9400009B01369527953695279507
S11300C0369527958217930728F1AB0156954795E6
S11300D05695479584179507F8F0F901E40FF51F35
S11300E08E179F07D8F07695679586179707C0F007
S11300F0F901E60FF71F8E179F07A0F0640F751F15
S11301008617970788F0620F731F8617970770F496
S113011087E0089581E0089582E0089583E00895DA
S113012084E0089585E0089586E0089588E00895C0
S113013084EF91E090930901809308019093070163
S11301408093060190930501809304019093030129
S113015080930201EAE0F1E0108212821182089594
S11301609093090180930801089590930701809367
S113017006010895909305018093040108959093D6
S11301800301809302010895EAE0F1E08181928104
S11301900196928381832081213059F028F0223006
S11301A069F0233081F008954091080150910901CC
S11301B00EC0409106015091070109C0409104010D
S11301C05091050104C04091020150910301481768
S11301D0590731F4EAE0F1E02F5F208312821182A3
S11301E00895EAE0F1E0108212821182089580916C
S11301F00A01813099F038F0823019F08330E9F047
S11302002BC084E0089560910801709109018091E8
S11302100B0190910C010E945B000895609106010E
S11302207091070180910B0190910C010E945B0079
S1130230982F969588E0891B08956091020170912A
S1130240030180910B0190910C010E945B00982F97
S1130250969584E0891B089580E0089510920E011C
S113026010920D018AB18B7F8AB908954A9911C001
S113027080910E018F5F80930E01843121F481E01F
S113028080930D010895853130F084E180930E014F
S1130290089510920E010895F89480910D01109222
S11302A00D01789408958EE284B981ED8CBD089592
S11302B090911001911112C091E09093100192E07D
S11302C090930F01982F92959F7090618295807FF3
S11302D0809300019EBD85B18B7F85B908951F92DF
S11302E00F920FB60F9211248F9380910F018150BA
S11302F080930F01813021F4809100018EBD0BC0E9
S113030085B1846085B91092100185B18D7F85B95E
S113031085B1826085B98F910F900FBE0F901F90A9
S1130320189584B1816084B98AB1806E8AB985B127
S11303308E7F85B98BB18F718BB90895813051F05F
S113034028F0823059F0833069F0089585B18E7FAA
S113035085B908958BB18F7D8BB908958BB18F7B4F
S11303608BB908958BB18F778BB90895813051F093
S113037028F0823059F0833069F0089585B18160A6
S113038085B908958BB180628BB908958BB180646F
S11303908BB908958BB180688BB908950E94980039
S11303A00E942E010E9453010E9491010E94250384
S11303B08AEF90E00E942F0380E00E94430380E0D4
S11303C00E949E018CE291E00E94B00082E390E0E2
S11303D00E94B50082E390E00E94BA0084EF91E0AD
S11303E00E94BF000E9479030E9482037894FFCF89
S11303F01F920F920FB60F9211242F933F934F9396
S11304005F936F937F938F939F93AF93BF93CF9398
S1130410DF93EF93FF930E9436010E944C018823DF
S1130420A9F00E947303C82FD0E02196C370D0783E
S1130430DD2324F42197CC6FDF6F21960E949E0167
S11304408C2F0E94B6018C2F0E9443030E94C4008B
S11304500E94F70080931301809111019091120181
S113046001969093120180931101883E23E0920734
S113047039F40E94F10088EB91E00E942F0318C028
S1130480803D27E0920739F40E94F10088E891E06A
S11304900E942F030DC0883B9B4051F40E94F10041
S11304A08DE591E00E942F03109212011092110128
S11304B0FF91EF91DF91CF91BF91AF919F918F9178
S11304C07F916F915F914F913F912F910F900FBE4C
S11304D00F901F9018951F920F920FB60F92112430
S11304E02F933F934F935F936F937F938F939F9338
S11304F0AF93BF93EF93FF930E944E030E94760342
S1130500E09113014E2F50E04830510548F5FA01AF
S1130510EC5CFF4F0C94C00386958695869520C0AD
S1130520869586951DC086958695982F9695890FF4
S113053017C0869515C08695982F96959695890F20
S11305400FC08695982F9695890F0AC08695282FF7
S11305502695982F96959695920F890F01C080E065
S11305600E945801FF91EF91BF91AF919F918F919C
S11305707F916F915F914F913F912F910F900FBE9B
S11305800F901F901895FC01208131818281938105
S1130590969587952817390749F41182108284812A
S11305A0811103C08FEF8483089514820895FC01A0
S11305B062817381808191810E948D039183808304
S11305C00895FC0180819181628173818617970768
S11305D011F411821082208131814FEF429FC001BA
S11305E0439F900D11240E948D0364830895FC01A0
S11305F080819181628173818617970711F411823A
S1130600108220813181CB0196958795281739076F
S113061060F44FEF429FC001439F900D11247695E3
S113062067950E948D0364830895CB01821B930B0D
S11306309C014FEF429FC001439F900D112476957A
S113064067950E948D036483089510921901E4E173
S1130650F1E0118210821382128214820895CF93E2
S1130660DF93C4E1D1E0198218829C0140E050E09C
S113067060E47CE980E090E00E94A1033B832A834C
S1130680DF91CF91089590911901981731F08093DB
S1130690190110921501109214010895E4E1F1E09A
S11306A080819181019691838083809119018130A9
S11306B059F028F0823091F0833059F0089584E1A4
S11306C091E00E94C302089584E191E00E94D70260
S11306D0089584E191E00E94E102089584E191E0AB
S11306E00E94F702089580911901089580911801DC
S11306F0089582E084BD93E095BD99EF97BD809302
S11307006E00089582E08093B0008093B10091E37D
S11307109093B300809370000895AA1BBB1B51E112
S113072007C0AA1FBB1FA617B70710F0A61BB70B5D
S1130730881F991F5A95A9F780959095BC01CD0102
S11307400895052E97FB1EF400940E94B80357FDEC
S113075007D00E94C60307FC03D04EF40C94B803E0
S113076050954095309521953F4F4F4F5F4F0895D9
S113077090958095709561957F4F8F4F9F4F089509
S1130780EE0FFF1F0590F491E02D0994A1E21A2EBB
S1130790AA1BBB1BFD010DC0AA1FBB1FEE1FFF1F21
S11307A0A217B307E407F50720F0A21BB30BE40B71
S11307B0F50B661F771F881F991F1A9469F76095B8
S11307C07095809590959B01AC01BD01CF01089572
S10707D0F894FFCFC7
S10507D4FF0020
S9030000FC
